{
  "contractName": "Donate",
  "abi": [
    {
      "inputs": [],
      "stateMutability": "nonpayable",
      "type": "constructor"
    },
    {
      "anonymous": false,
      "inputs": [
        {
          "indexed": true,
          "internalType": "address",
          "name": "previousOwner",
          "type": "address"
        },
        {
          "indexed": true,
          "internalType": "address",
          "name": "newOwner",
          "type": "address"
        }
      ],
      "name": "OwnershipTransferred",
      "type": "event"
    },
    {
      "inputs": [],
      "name": "coffeePrice",
      "outputs": [
        {
          "internalType": "uint256",
          "name": "",
          "type": "uint256"
        }
      ],
      "stateMutability": "view",
      "type": "function",
      "constant": true
    },
    {
      "inputs": [],
      "name": "owner",
      "outputs": [
        {
          "internalType": "address",
          "name": "",
          "type": "address"
        }
      ],
      "stateMutability": "view",
      "type": "function",
      "constant": true
    },
    {
      "inputs": [],
      "name": "renounceOwnership",
      "outputs": [],
      "stateMutability": "nonpayable",
      "type": "function"
    },
    {
      "inputs": [],
      "name": "sum",
      "outputs": [
        {
          "internalType": "uint256",
          "name": "",
          "type": "uint256"
        }
      ],
      "stateMutability": "view",
      "type": "function",
      "constant": true
    },
    {
      "inputs": [
        {
          "internalType": "address",
          "name": "newOwner",
          "type": "address"
        }
      ],
      "name": "transferOwnership",
      "outputs": [],
      "stateMutability": "nonpayable",
      "type": "function"
    },
    {
      "inputs": [],
      "name": "getReceiveAddress",
      "outputs": [
        {
          "internalType": "address",
          "name": "",
          "type": "address"
        }
      ],
      "stateMutability": "view",
      "type": "function",
      "constant": true
    },
    {
      "inputs": [],
      "name": "getReceivedCoffee",
      "outputs": [
        {
          "internalType": "uint256",
          "name": "",
          "type": "uint256"
        }
      ],
      "stateMutability": "view",
      "type": "function",
      "constant": true
    },
    {
      "inputs": [
        {
          "internalType": "address",
          "name": "_addr",
          "type": "address"
        }
      ],
      "name": "changeReceiveAddress",
      "outputs": [],
      "stateMutability": "nonpayable",
      "type": "function"
    },
    {
      "inputs": [],
      "name": "donate",
      "outputs": [],
      "stateMutability": "payable",
      "type": "function",
      "payable": true
    }
  ],
  "bytecode": "0x6080604052662386f26fc1000060035534801561001b57600080fd5b5061003861002d61008b60201b60201c565b61009360201b60201c565b61004661008b60201b60201c565b600260006101000a81548173ffffffffffffffffffffffffffffffffffffffff021916908373ffffffffffffffffffffffffffffffffffffffff160217905550610157565b600033905090565b60008060009054906101000a900473ffffffffffffffffffffffffffffffffffffffff169050816000806101000a81548173ffffffffffffffffffffffffffffffffffffffff021916908373ffffffffffffffffffffffffffffffffffffffff1602179055508173ffffffffffffffffffffffffffffffffffffffff168173ffffffffffffffffffffffffffffffffffffffff167f8be0079c531659141344cd1fd0a4f28419497f9722a3daafe3b4186f6b6457e060405160405180910390a35050565b6109c3806101666000396000f3fe6080604052600436106100865760003560e01c8063853255cc11610059578063853255cc146101215780638da5cb5b1461014c578063ed88c68e14610177578063f2fde38b14610181578063f361ab8b146101aa57610086565b80631c8a40381461008b578063715018a6146100b657806374fbd87a146100cd5780637a9eacb7146100f6575b600080fd5b34801561009757600080fd5b506100a06101d5565b6040516100ad91906106c4565b60405180910390f35b3480156100c257600080fd5b506100cb6101db565b005b3480156100d957600080fd5b506100f460048036038101906100ef9190610742565b610263565b005b34801561010257600080fd5b5061010b61037d565b604051610118919061077e565b60405180910390f35b34801561012d57600080fd5b50610136610423565b60405161014391906106c4565b60405180910390f35b34801561015857600080fd5b50610161610429565b60405161016e919061077e565b60405180910390f35b61017f610452565b005b34801561018d57600080fd5b506101a860048036038101906101a39190610742565b6104d1565b005b3480156101b657600080fd5b506101bf6105c8565b6040516101cc91906106c4565b60405180910390f35b60035481565b6101e36105df565b73ffffffffffffffffffffffffffffffffffffffff16610201610429565b73ffffffffffffffffffffffffffffffffffffffff1614610257576040517f08c379a000000000000000000000000000000000000000000000000000000000815260040161024e906107f6565b60405180910390fd5b61026160006105e7565b565b61026b6105df565b73ffffffffffffffffffffffffffffffffffffffff16610289610429565b73ffffffffffffffffffffffffffffffffffffffff16146102df576040517f08c379a00000000000000000000000000000000000000000000000000000000081526004016102d6906107f6565b60405180910390fd5b8073ffffffffffffffffffffffffffffffffffffffff16600260009054906101000a900473ffffffffffffffffffffffffffffffffffffffff1673ffffffffffffffffffffffffffffffffffffffff160361033957600080fd5b80600260006101000a81548173ffffffffffffffffffffffffffffffffffffffff021916908373ffffffffffffffffffffffffffffffffffffffff16021790555050565b60006103876105df565b73ffffffffffffffffffffffffffffffffffffffff166103a5610429565b73ffffffffffffffffffffffffffffffffffffffff16146103fb576040517f08c379a00000000000000000000000000000000000000000000000000000000081526004016103f2906107f6565b60405180910390fd5b600260009054906101000a900473ffffffffffffffffffffffffffffffffffffffff16905090565b60015481565b60008060009054906101000a900473ffffffffffffffffffffffffffffffffffffffff16905090565b600260009054906101000a900473ffffffffffffffffffffffffffffffffffffffff1673ffffffffffffffffffffffffffffffffffffffff166108fc349081150290604051600060405180830381858888f193505050501580156104ba573d6000803e3d6000fd5b50346001546104c99190610845565b600181905550565b6104d96105df565b73ffffffffffffffffffffffffffffffffffffffff166104f7610429565b73ffffffffffffffffffffffffffffffffffffffff161461054d576040517f08c379a0000000000000000000000000000000000000000000000000000000008152600401610544906107f6565b60405180910390fd5b600073ffffffffffffffffffffffffffffffffffffffff168173ffffffffffffffffffffffffffffffffffffffff16036105bc576040517f08c379a00000000000000000000000000000000000000000000000000000000081526004016105b39061090d565b60405180910390fd5b6105c5816105e7565b50565b60006003546001546105da919061095c565b905090565b600033905090565b60008060009054906101000a900473ffffffffffffffffffffffffffffffffffffffff169050816000806101000a81548173ffffffffffffffffffffffffffffffffffffffff021916908373ffffffffffffffffffffffffffffffffffffffff1602179055508173ffffffffffffffffffffffffffffffffffffffff168173ffffffffffffffffffffffffffffffffffffffff167f8be0079c531659141344cd1fd0a4f28419497f9722a3daafe3b4186f6b6457e060405160405180910390a35050565b6000819050919050565b6106be816106ab565b82525050565b60006020820190506106d960008301846106b5565b92915050565b600080fd5b600073ffffffffffffffffffffffffffffffffffffffff82169050919050565b600061070f826106e4565b9050919050565b61071f81610704565b811461072a57600080fd5b50565b60008135905061073c81610716565b92915050565b600060208284031215610758576107576106df565b5b60006107668482850161072d565b91505092915050565b61077881610704565b82525050565b6000602082019050610793600083018461076f565b92915050565b600082825260208201905092915050565b7f4f776e61626c653a2063616c6c6572206973206e6f7420746865206f776e6572600082015250565b60006107e0602083610799565b91506107eb826107aa565b602082019050919050565b6000602082019050818103600083015261080f816107d3565b9050919050565b7f4e487b7100000000000000000000000000000000000000000000000000000000600052601160045260246000fd5b6000610850826106ab565b915061085b836106ab565b9250827fffffffffffffffffffffffffffffffffffffffffffffffffffffffffffffffff038211156108905761088f610816565b5b828201905092915050565b7f4f776e61626c653a206e6577206f776e657220697320746865207a65726f206160008201527f6464726573730000000000000000000000000000000000000000000000000000602082015250565b60006108f7602683610799565b91506109028261089b565b604082019050919050565b60006020820190508181036000830152610926816108ea565b9050919050565b7f4e487b7100000000000000000000000000000000000000000000000000000000600052601260045260246000fd5b6000610967826106ab565b9150610972836106ab565b9250826109825761098161092d565b5b82820490509291505056fea2646970667358221220cb8744b343171a38e4ebeb01f4bfa66b1ac0df41ed4a56733ca2ced6f32c97c264736f6c634300080d0033",
  "immutableReferences": {},
  "source": "// SPDX-License-Identifier: UNLICENSED\r\n\r\npragma solidity ^0.8.0;\r\n\r\nimport \"./Ownable.sol\";\r\n\r\n/// @title Donate\r\n/// @author ImInnocent\r\n/// @notice       \r\ncontract Donate is Ownable {\r\n    uint public sum;\r\n    address payable private receiveAddress;\r\n    uint public coffeePrice = 0.01 ether;\r\n\r\n    constructor() {\r\n        receiveAddress = payable(_msgSender());\r\n    }\r\n\r\n    function getReceiveAddress() view external onlyOwner returns (address) {\r\n        return receiveAddress;\r\n    }\r\n\r\n    /// @notice    .   .\r\n    /// @return   .\r\n    function getReceivedCoffee() view external returns (uint) {\r\n        return sum / coffeePrice;\r\n    }\r\n\r\n    /// @notice     . ( )\r\n    /// @param _addr   \r\n    function changeReceiveAddress(address _addr) external onlyOwner {\r\n        require(receiveAddress != payable(_addr));\r\n        receiveAddress = payable(_addr);\r\n    }\r\n\r\n    /// @notice       \r\n    function donate() payable external {\r\n        receiveAddress.transfer(msg.value);\r\n        sum = sum + msg.value;\r\n    }\r\n}\r\n",
  "sourcePath": "C:\\Users\\user\\Documents\\GitHub\\cheers-coffee-contract\\contracts\\Donate.sol",
  "compiler": {
    "name": "solc",
    "version": "0.8.13+commit.abaa5c0e.Emscripten.clang"
  },
  "schemaVersion": "3.4.7",
  "updatedAt": "2022-04-25T12:34:50.880Z",
  "networkType": "ethereum",
  "devdoc": {
    "author": "ImInnocent",
    "kind": "dev",
    "methods": {
      "changeReceiveAddress(address)": {
        "params": {
          "_addr": "  "
        }
      },
      "getReceivedCoffee()": {
        "returns": {
          "_0": "  ."
        }
      },
      "owner()": {
        "details": "Returns the address of the current owner."
      },
      "renounceOwnership()": {
        "details": "Leaves the contract without owner. It will not be possible to call `onlyOwner` functions anymore. Can only be called by the current owner. NOTE: Renouncing ownership will leave the contract without an owner, thereby removing any functionality that is only available to the owner."
      },
      "transferOwnership(address)": {
        "details": "Transfers ownership of the contract to a new account (`newOwner`). Can only be called by the current owner."
      }
    },
    "title": "Donate",
    "version": 1
  },
  "userdoc": {
    "kind": "user",
    "methods": {
      "changeReceiveAddress(address)": {
        "notice": "    . ( )"
      },
      "donate()": {
        "notice": "      "
      },
      "getReceivedCoffee()": {
        "notice": "   .   ."
      }
    },
    "notice": "      ",
    "version": 1
  }
}