{
  "contractName": "Donate",
  "abi": [
    {
      "inputs": [],
      "stateMutability": "nonpayable",
      "type": "constructor"
    },
    {
      "anonymous": false,
      "inputs": [
        {
          "indexed": true,
          "internalType": "address",
          "name": "previousOwner",
          "type": "address"
        },
        {
          "indexed": true,
          "internalType": "address",
          "name": "newOwner",
          "type": "address"
        }
      ],
      "name": "OwnershipTransferred",
      "type": "event"
    },
    {
      "inputs": [],
      "name": "coffeePrice",
      "outputs": [
        {
          "internalType": "uint256",
          "name": "",
          "type": "uint256"
        }
      ],
      "stateMutability": "view",
      "type": "function",
      "constant": true
    },
    {
      "inputs": [],
      "name": "owner",
      "outputs": [
        {
          "internalType": "address",
          "name": "",
          "type": "address"
        }
      ],
      "stateMutability": "view",
      "type": "function",
      "constant": true
    },
    {
      "inputs": [],
      "name": "renounceOwnership",
      "outputs": [],
      "stateMutability": "nonpayable",
      "type": "function"
    },
    {
      "inputs": [],
      "name": "sum",
      "outputs": [
        {
          "internalType": "uint256",
          "name": "",
          "type": "uint256"
        }
      ],
      "stateMutability": "view",
      "type": "function",
      "constant": true
    },
    {
      "inputs": [
        {
          "internalType": "address",
          "name": "newOwner",
          "type": "address"
        }
      ],
      "name": "transferOwnership",
      "outputs": [],
      "stateMutability": "nonpayable",
      "type": "function"
    },
    {
      "inputs": [],
      "name": "getReceivedCoffee",
      "outputs": [
        {
          "internalType": "uint256",
          "name": "",
          "type": "uint256"
        }
      ],
      "stateMutability": "view",
      "type": "function",
      "constant": true
    },
    {
      "inputs": [
        {
          "internalType": "address",
          "name": "_addr",
          "type": "address"
        }
      ],
      "name": "changeReceiveAddress",
      "outputs": [],
      "stateMutability": "nonpayable",
      "type": "function"
    },
    {
      "inputs": [],
      "name": "donate",
      "outputs": [],
      "stateMutability": "payable",
      "type": "function",
      "payable": true
    }
  ],
  "bytecode": "0x6080604052662386f26fc1000060035534801561001b57600080fd5b5061003861002d61008b60201b60201c565b61009360201b60201c565b61004661008b60201b60201c565b600260006101000a81548173ffffffffffffffffffffffffffffffffffffffff021916908373ffffffffffffffffffffffffffffffffffffffff160217905550610157565b600033905090565b60008060009054906101000a900473ffffffffffffffffffffffffffffffffffffffff169050816000806101000a81548173ffffffffffffffffffffffffffffffffffffffff021916908373ffffffffffffffffffffffffffffffffffffffff1602179055508173ffffffffffffffffffffffffffffffffffffffff168173ffffffffffffffffffffffffffffffffffffffff167f8be0079c531659141344cd1fd0a4f28419497f9722a3daafe3b4186f6b6457e060405160405180910390a35050565b6108e7806101666000396000f3fe60806040526004361061007b5760003560e01c80638da5cb5b1161004e5780638da5cb5b14610116578063ed88c68e14610141578063f2fde38b1461014b578063f361ab8b146101745761007b565b80631c8a403814610080578063715018a6146100ab57806374fbd87a146100c2578063853255cc146100eb575b600080fd5b34801561008c57600080fd5b5061009561019f565b6040516100a291906105e8565b60405180910390f35b3480156100b757600080fd5b506100c06101a5565b005b3480156100ce57600080fd5b506100e960048036038101906100e49190610666565b61022d565b005b3480156100f757600080fd5b50610100610347565b60405161010d91906105e8565b60405180910390f35b34801561012257600080fd5b5061012b61034d565b60405161013891906106a2565b60405180910390f35b610149610376565b005b34801561015757600080fd5b50610172600480360381019061016d9190610666565b6103f5565b005b34801561018057600080fd5b506101896104ec565b60405161019691906105e8565b60405180910390f35b60035481565b6101ad610503565b73ffffffffffffffffffffffffffffffffffffffff166101cb61034d565b73ffffffffffffffffffffffffffffffffffffffff1614610221576040517f08c379a00000000000000000000000000000000000000000000000000000000081526004016102189061071a565b60405180910390fd5b61022b600061050b565b565b610235610503565b73ffffffffffffffffffffffffffffffffffffffff1661025361034d565b73ffffffffffffffffffffffffffffffffffffffff16146102a9576040517f08c379a00000000000000000000000000000000000000000000000000000000081526004016102a09061071a565b60405180910390fd5b8073ffffffffffffffffffffffffffffffffffffffff16600260009054906101000a900473ffffffffffffffffffffffffffffffffffffffff1673ffffffffffffffffffffffffffffffffffffffff160361030357600080fd5b80600260006101000a81548173ffffffffffffffffffffffffffffffffffffffff021916908373ffffffffffffffffffffffffffffffffffffffff16021790555050565b60015481565b60008060009054906101000a900473ffffffffffffffffffffffffffffffffffffffff16905090565b600260009054906101000a900473ffffffffffffffffffffffffffffffffffffffff1673ffffffffffffffffffffffffffffffffffffffff166108fc349081150290604051600060405180830381858888f193505050501580156103de573d6000803e3d6000fd5b50346001546103ed9190610769565b600181905550565b6103fd610503565b73ffffffffffffffffffffffffffffffffffffffff1661041b61034d565b73ffffffffffffffffffffffffffffffffffffffff1614610471576040517f08c379a00000000000000000000000000000000000000000000000000000000081526004016104689061071a565b60405180910390fd5b600073ffffffffffffffffffffffffffffffffffffffff168173ffffffffffffffffffffffffffffffffffffffff16036104e0576040517f08c379a00000000000000000000000000000000000000000000000000000000081526004016104d790610831565b60405180910390fd5b6104e98161050b565b50565b60006003546001546104fe9190610880565b905090565b600033905090565b60008060009054906101000a900473ffffffffffffffffffffffffffffffffffffffff169050816000806101000a81548173ffffffffffffffffffffffffffffffffffffffff021916908373ffffffffffffffffffffffffffffffffffffffff1602179055508173ffffffffffffffffffffffffffffffffffffffff168173ffffffffffffffffffffffffffffffffffffffff167f8be0079c531659141344cd1fd0a4f28419497f9722a3daafe3b4186f6b6457e060405160405180910390a35050565b6000819050919050565b6105e2816105cf565b82525050565b60006020820190506105fd60008301846105d9565b92915050565b600080fd5b600073ffffffffffffffffffffffffffffffffffffffff82169050919050565b600061063382610608565b9050919050565b61064381610628565b811461064e57600080fd5b50565b6000813590506106608161063a565b92915050565b60006020828403121561067c5761067b610603565b5b600061068a84828501610651565b91505092915050565b61069c81610628565b82525050565b60006020820190506106b76000830184610693565b92915050565b600082825260208201905092915050565b7f4f776e61626c653a2063616c6c6572206973206e6f7420746865206f776e6572600082015250565b60006107046020836106bd565b915061070f826106ce565b602082019050919050565b60006020820190508181036000830152610733816106f7565b9050919050565b7f4e487b7100000000000000000000000000000000000000000000000000000000600052601160045260246000fd5b6000610774826105cf565b915061077f836105cf565b9250827fffffffffffffffffffffffffffffffffffffffffffffffffffffffffffffffff038211156107b4576107b361073a565b5b828201905092915050565b7f4f776e61626c653a206e6577206f776e657220697320746865207a65726f206160008201527f6464726573730000000000000000000000000000000000000000000000000000602082015250565b600061081b6026836106bd565b9150610826826107bf565b604082019050919050565b6000602082019050818103600083015261084a8161080e565b9050919050565b7f4e487b7100000000000000000000000000000000000000000000000000000000600052601260045260246000fd5b600061088b826105cf565b9150610896836105cf565b9250826108a6576108a5610851565b5b82820490509291505056fea26469706673582212200fdf9296a6f8aa9e62ac7c5d5f18419537d3ab10c08a91a4a03162b030de5e3464736f6c634300080d0033",
  "immutableReferences": {},
  "source": "// SPDX-License-Identifier: UNLICENSED\r\n\r\npragma solidity ^0.8.0;\r\n\r\nimport \"./Ownable.sol\";\r\n\r\n/// @title Donate\r\n/// @author ImInnocent\r\n/// @notice       \r\ncontract Donate is Ownable {\r\n    uint public sum;\r\n    address payable private receiveAddress;\r\n    uint public coffeePrice = 0.01 ether;\r\n\r\n    constructor() {\r\n        receiveAddress = payable(_msgSender());\r\n    }\r\n\r\n    /// @notice    .   .\r\n    /// @return   .\r\n    function getReceivedCoffee() view external returns (uint) {\r\n        return sum / coffeePrice;\r\n    }\r\n\r\n    /// @notice     . ( )\r\n    /// @param _addr   \r\n    function changeReceiveAddress(address _addr) external onlyOwner {\r\n        require(receiveAddress != payable(_addr));\r\n        receiveAddress = payable(_addr);\r\n    }\r\n\r\n    /// @notice       \r\n    function donate() payable external {\r\n        receiveAddress.transfer(msg.value);\r\n        sum = sum + msg.value;\r\n    }\r\n}\r\n",
  "sourcePath": "C:\\Users\\user\\Documents\\GitHub\\cheers-coffee-contract\\contracts\\Donate.sol",
  "compiler": {
    "name": "solc",
    "version": "0.8.13+commit.abaa5c0e.Emscripten.clang"
  },
  "schemaVersion": "3.4.7",
  "updatedAt": "2022-04-22T11:49:34.027Z",
  "networkType": "ethereum",
  "devdoc": {
    "author": "ImInnocent",
    "kind": "dev",
    "methods": {
      "changeReceiveAddress(address)": {
        "params": {
          "_addr": "  "
        }
      },
      "getReceivedCoffee()": {
        "returns": {
          "_0": "  ."
        }
      },
      "owner()": {
        "details": "Returns the address of the current owner."
      },
      "renounceOwnership()": {
        "details": "Leaves the contract without owner. It will not be possible to call `onlyOwner` functions anymore. Can only be called by the current owner. NOTE: Renouncing ownership will leave the contract without an owner, thereby removing any functionality that is only available to the owner."
      },
      "transferOwnership(address)": {
        "details": "Transfers ownership of the contract to a new account (`newOwner`). Can only be called by the current owner."
      }
    },
    "title": "Donate",
    "version": 1
  },
  "userdoc": {
    "kind": "user",
    "methods": {
      "changeReceiveAddress(address)": {
        "notice": "    . ( )"
      },
      "donate()": {
        "notice": "      "
      },
      "getReceivedCoffee()": {
        "notice": "   .   ."
      }
    },
    "notice": "      ",
    "version": 1
  }
}